{
  "contractName": "AssetManager",
  "abi": [
    {
      "inputs": [],
      "payable": false,
      "stateMutability": "nonpayable",
      "type": "constructor"
    },
    {
      "anonymous": false,
      "inputs": [
        {
          "indexed": false,
          "internalType": "string",
          "name": "assetName",
          "type": "string"
        },
        {
          "indexed": false,
          "internalType": "uint256",
          "name": "assetNumber",
          "type": "uint256"
        }
      ],
      "name": "AssetCreated",
      "type": "event"
    },
    {
      "constant": true,
      "inputs": [],
      "name": "assetCount",
      "outputs": [
        {
          "internalType": "uint256",
          "name": "",
          "type": "uint256"
        }
      ],
      "payable": false,
      "stateMutability": "view",
      "type": "function"
    },
    {
      "constant": true,
      "inputs": [
        {
          "internalType": "uint256",
          "name": "",
          "type": "uint256"
        }
      ],
      "name": "assets",
      "outputs": [
        {
          "internalType": "string",
          "name": "assetCode",
          "type": "string"
        },
        {
          "internalType": "string",
          "name": "assetName",
          "type": "string"
        }
      ],
      "payable": false,
      "stateMutability": "view",
      "type": "function"
    },
    {
      "constant": false,
      "inputs": [
        {
          "internalType": "string",
          "name": "_assetCode",
          "type": "string"
        },
        {
          "internalType": "string",
          "name": "_assetName",
          "type": "string"
        }
      ],
      "name": "createAsset",
      "outputs": [],
      "payable": false,
      "stateMutability": "nonpayable",
      "type": "function"
    },
    {
      "constant": false,
      "inputs": [],
      "name": "addTestData",
      "outputs": [],
      "payable": false,
      "stateMutability": "nonpayable",
      "type": "function"
    }
  ],
  "bytecode": "0x608060405234801561001057600080fd5b5060405180604001604052806040518060400160405280600981526020017f746573745f636f6465000000000000000000000000000000000000000000000081525081526020016040518060400160405280600481526020017f74657374000000000000000000000000000000000000000000000000000000008152508152506001600080815260200190815260200160002060008201518160000190805190602001906100bf9291906100ed565b5060208201518160010190805190602001906100dc9291906100ed565b509050506001600081905550610192565b828054600181600116156101000203166002900490600052602060002090601f016020900481019282601f1061012e57805160ff191683800117855561015c565b8280016001018555821561015c579182015b8281111561015b578251825591602001919060010190610140565b5b509050610169919061016d565b5090565b61018f91905b8082111561018b576000816000905550600101610173565b5090565b90565b610802806101a16000396000f3fe608060405234801561001057600080fd5b506004361061004c5760003560e01c8063a212b45414610051578063a2a55b681461005b578063cf35bdd0146101ad578063eafe7a74146102c0575b600080fd5b6100596102de565b005b6101ab6004803603604081101561007157600080fd5b810190808035906020019064010000000081111561008e57600080fd5b8201836020820111156100a057600080fd5b803590602001918460018302840111640100000000831117156100c257600080fd5b91908080601f016020809104026020016040519081016040528093929190818152602001838380828437600081840152601f19601f8201169050808301925050505050505091929192908035906020019064010000000081111561012557600080fd5b82018360208201111561013757600080fd5b8035906020019184600183028401116401000000008311171561015957600080fd5b91908080601f016020809104026020016040519081016040528093929190818152602001838380828437600081840152601f19601f8201169050808301925050505050505091929192905050506104b0565b005b6101d9600480360360208110156101c357600080fd5b81019080803590602001909291905050506105ce565b604051808060200180602001838103835285818151815260200191508051906020019080838360005b8381101561021d578082015181840152602081019050610202565b50505050905090810190601f16801561024a5780820380516001836020036101000a031916815260200191505b50838103825284818151815260200191508051906020019080838360005b83811015610283578082015181840152602081019050610268565b50505050905090810190601f1680156102b05780820380516001836020036101000a031916815260200191505b5094505050505060405180910390f35b6102c8610722565b6040518082815260200191505060405180910390f35b6103526040518060400160405280600981526020017f6d616e755f636f646500000000000000000000000000000000000000000000008152506040518060400160405280600481526020017f6d616e75000000000000000000000000000000000000000000000000000000008152506104b0565b6103c66040518060400160405280600a81526020017f61646d696e5f636f6465000000000000000000000000000000000000000000008152506040518060400160405280600581526020017f61646d696e0000000000000000000000000000000000000000000000000000008152506104b0565b61043a6040518060400160405280600a81526020017f737465766f5f636f6465000000000000000000000000000000000000000000008152506040518060400160405280600581526020017f737465766f0000000000000000000000000000000000000000000000000000008152506104b0565b6104ae6040518060400160405280600a81526020017f736b6974615f636f6465000000000000000000000000000000000000000000008152506040518060400160405280600581526020017f736b6974610000000000000000000000000000000000000000000000000000008152506104b0565b565b604051806040016040528083815260200182815250600160008060008154809291906001019190505581526020019081526020016000206000820151816000019080519060200190610503929190610728565b506020820151816001019080519060200190610520929190610728565b509050507f2a1f7f425b4ca5fe247c52f3b89fcf14eb5f93bd0817000d8f993db905deaedc816000546040518080602001838152602001828103825284818151815260200191508051906020019080838360005b8381101561058f578082015181840152602081019050610574565b50505050905090810190601f1680156105bc5780820380516001836020036101000a031916815260200191505b50935050505060405180910390a15050565b6001602052806000526040600020600091509050806000018054600181600116156101000203166002900480601f01602080910402602001604051908101604052809291908181526020018280546001816001161561010002031660029004801561067a5780601f1061064f5761010080835404028352916020019161067a565b820191906000526020600020905b81548152906001019060200180831161065d57829003601f168201915b505050505090806001018054600181600116156101000203166002900480601f0160208091040260200160405190810160405280929190818152602001828054600181600116156101000203166002900480156107185780601f106106ed57610100808354040283529160200191610718565b820191906000526020600020905b8154815290600101906020018083116106fb57829003601f168201915b5050505050905082565b60005481565b828054600181600116156101000203166002900490600052602060002090601f016020900481019282601f1061076957805160ff1916838001178555610797565b82800160010185558215610797579182015b8281111561079657825182559160200191906001019061077b565b5b5090506107a491906107a8565b5090565b6107ca91905b808211156107c65760008160009055506001016107ae565b5090565b9056fea265627a7a72315820e370cba9cab627ab847be166279cfb6215ae46179831c137fea64271eee7b78c64736f6c63430005100032",
  "source": "// SPDX-License-Identifier: MIT\npragma solidity >=0.4.22 <0.9.0;\n\ncontract AssetManager {\n    uint public assetCount;\n\n    struct Asset {\n        string assetCode;\n        string assetName;\n    }\n\n    mapping (uint=>Asset) public assets;\n\n    event AssetCreated (\n        string assetName,\n        uint assetNumber\n    );\n\n    constructor () public {\n        assets[0] = Asset(\"test_code\", \"test\");\n        assetCount = 1;\n    }\n\n    function createAsset (string memory _assetCode, string memory _assetName) public {\n        // add asset to mapping and increment assetCount\n        assets[assetCount++] = Asset(_assetCode, _assetName);\n\n        // emit AssetCreated event\n        emit AssetCreated (_assetName, assetCount);\n    }\n\n    function addTestData () external  {\n        createAsset(\"manu_code\", \"manu\");\n        createAsset(\"admin_code\", \"admin\");\n        createAsset(\"stevo_code\", \"stevo\");\n        createAsset(\"skita_code\", \"skita\");\n    }\n}",
  "sourcePath": "D:\\Program Files\\DProjects\\dsc_dApp-main\\contracts\\AssetManager.sol",
  "compiler": {
    "name": "solc",
    "version": "0.5.16+commit.9c3226ce.Emscripten.clang"
  },
  "schemaVersion": "3.4.3",
  "updatedAt": "2021-11-28T13:42:29.138Z",
  "networkType": "ethereum",
  "devdoc": {
    "methods": {}
  },
  "userdoc": {
    "methods": {}
  }
}